:020000040800F2
:1000000038070020D5010008D9010008DB010008ED
:10001000DD010008DF010008E10100080000000028
:10002000000000000000000000000000E3010008E4
:10003000E501000800000000E7010008E9010008F0
:10004000EB010008EB010008EB010008EB010008E0
:10005000EB010008EB010008EB010008EB010008D0
:10006000EB010008EB010008EB010008EB010008C0
:10007000EB010008EB010008EB010008EB010008B0
:10008000EB010008EB010008EB010008EB010008A0
:10009000EB010008EB010008EB010008EB01000890
:1000A000EB010008EB010008EB010008EB01000880
:1000B000EB010008EB010008EB010008EB01000870
:1000C000EB010008EB010008EB010008EB01000860
:1000D000EB01000805070008EB010008EB01000830
:1000E000EB010008EB010008EB010008EB01000840
:1000F000EB010008EB010008EB010008EB01000830
:10010000EB010008EB010008EB010008EB0100081F
:10011000EB010008EB010008EB010008EB0100080F
:10012000EB010008EB010008EB010008EB010008FF
:1001300000F002F800F03FF80AA090E8000C8244BA
:100140008344AAF10107DA4501D100F034F8AFF297
:10015000090EBAE80F0013F0010F18BFFB1A43F0A5
:1001600001031847C4140000E4140000103A24BF2F
:1001700078C878C1FAD8520724BF30C830C144BF0C
:1001800004680C607047000000230024002500264E
:10019000103A28BF78C1FBD8520728BF30C148BFEA
:1001A0000B607047782900F06780002070471FB50A
:1001B0001FBD10B510BD00F09DF91146FFF7F7FF08
:1001C00000F06AFE00F0BBF903B4FFF7F2FF03BCD6
:1001D00000F0E1FA08480047FEE7FEE7FEE7FEE729
:1001E000FEE7FEE7FEE7FEE7FEE7FEE70348044919
:1001F000044A054B70470000310100083801002017
:100200003807002038030020380300207047000022
:100210000FB4044910B503AA029800F03DF910BCD0
:100220005DF814FB0400002070B504468569006881
:10023000C10601D5302600E02026C00707D070BDDA
:10024000D4E9012130469047206A401C20626D1E8F
:10025000F6D570BD70B5044685690078C00707D132
:1002600070BDD4E9012120209047206A401C206203
:100270006D1EF6D570BD000070B504460D462146D2
:100280001068AFF300802188090502D50F4A7A442F
:1002900002E00E4A7A440E32002104F1240305E004
:1002A00000F00F060009965D5E54491C0028F7D146
:1002B00020780023000704D5702D02D009B1022355
:1002C00011322046BDE8704000F08DB86E1300007A
:1002D0002DE9F0474FF0000A89460446C0F820A0F7
:1002E0002046E1688847002876D0252806D0D4E942
:1002F00001219047206A401C2062F1E7E168204616
:1003000000258847C4F81CA006460027C4F818A09A
:100310002A2E09D0304600F037FA38B304EB8708AC
:10032000303EC8F8186019E059F8041B204604EB69
:1003300087029161E1688847012F064618D1E0697C
:10034000002820DA25F020051DE0D8F8180000EB81
:10035000800006EB40003038C8F818002046E168FD
:100360008847064600F010FA0028EED1012F0AD087
:100370002E2E08D12046E16888477F1C0646022FB2
:1003800045F02005C4DBA069002803DA404245F0AF
:100390000105A061E80701D025F01005B6B1A6F16E
:1003A0004100192802D8203645F400654A463146F6
:1003B000204625604D46FFF7F5FE58B1012806D0CE
:1003C000ED1D25F0070000F1080989E704E005F1BB
:1003D000040985E730468AE7206ABDE8F087704760
:1003E0007047704770472DE9F0470D469946924691
:1003F000044600F124080168880604D5E06921F06C
:100400001001216000E00120A84201DD471B00E04F
:100410000027A1697A1902EB0900081AA061207867
:10042000C00602D42046FFF7FFFE002608E0D4E90C
:1004300001211AF806009047206A401C761C2062B1
:100440004E45F4DB2078C0060AD52046FFF7ECFEC7
:1004500006E0D4E9012130209047206A401C206248
:10046000381EA7F10107F4DC07E0D4E9012118F8F0
:1004700005009047206A401C2062281EA5F1010556
:10048000F3DC2046FFF7E6FE2078000602D50220C6
:10049000BDE8F0870120FBE7074B70B50D467B44B4
:1004A00000F011F80446284600F020F810B14FF093
:1004B000FF3070BD204670BD7F05000001694A1CF9
:1004C00002610878704700B58FB0CDE90131002195
:1004D000059105497944CDE9031011466846FFF7B7
:1004E000F7FE0FB000BD0000E5FFFFFF007B00F04E
:1004F00080007047754600F02BF8AE46050069464F
:10050000534620F00700854618B020B5FFF76EFE71
:10051000BDE820404FF000064FF000074FF0000804
:100520004FF0000B21F00701AC46ACE8C009ACE885
:10053000C009ACE8C009ACE8C0098D46704710B5E9
:100540000446AFF300802046BDE81040FFF73CBEF4
:1005500000487047D400002000B50020154908610C
:10056000C8601420486100208861C861084600689E
:1005700040F001000860084640680F4908400D49F6
:100580004860084600680D4908400A490860084666
:10059000006820F4802008600846406820F4FE00CF
:1005A00048600020886000214FF0006000F058F89B
:1005B00000BD0000001002400000FFF8FFFFF6FE43
:1005C0002DE9F0410746884614461D46284600F0AE
:1005D00033F8C5F1040007FA00F60F20284100EABD
:1005E0000800064306F00F06E21704EBD262521130
:1005F000920002F1E022D2F800212146E31704EB39
:10060000D3635B11A4EB431C012303FA0CF31A43DD
:100610002046E31704EBD3635B119B0003F1E02357
:10062000C3F800210348005D40EA0610014908555F
:10063000BDE8F08100E400E00146072323EA01025F
:100640001202054B18684FF6FF031840034B18437E
:100650001043014B186070470CED00E00000FA05F4
:10066000024A0A400243024B1A60704780FFFF1F94
:1006700008ED00E030B504460025FFF76DFF1F4888
:10068000006840F480301D49086000BF1B480068C6
:10069000400C0028FAD04FF4806018494860A01E32
:1006A000C4B20846406840EA844048600846406852
:1006B00040F4803048601248006840F03200104931
:1006C00008600E48006840F080700C49086000BF68
:1006D0000A480068400E0028FAD00848406840F0F8
:1006E00002000649486005E004484068C0F38705F9
:1006F00005F00305022DF7D130BD000000100240C7
:10070000002002401D49098801F0200111B31B4956
:10071000091D0988C8B21A49098801F40041C9B9FC
:100720001749098801F4804161B10A2803D00021EA
:10073000134A118020E01249098841F40041104A0F
:10074000118019E00D2806D10D49098841F4804136
:100750000B4A118010E00A490988C1F30D01094ACA
:10076000505407490988491C054A118011460988D7
:10077000C72901DD002111807047000000380140C9
:10078000080000200C00002030380A2801D2012087
:10079000704700207047014600BF704770B50DA03C
:1007A000FFF736FD002412E0104D05EB0415EB6851
:1007B0000E4D05EB0415AA680C4D05EB0415696890
:1007C0000A4D05EB0415286800F038F9641C012C6B
:1007D000EADB70BD626565705F696E697428292EF9
:1007E0002E2E2E2E2E2E2E0D0A000000C0150008D3
:1007F00070B504460D46012C02DD05A0FFF708FD8B
:1008000014B90B48056000E000BF00BF002070BDB8
:10081000626565705F737461727428292C2062654B
:1008200065705F6E756D206572726F720D0A0000E3
:10083000A081214210B5002417480068012807D084
:100840001648006820B11548001F006800281DD117
:1008500013A0FFF7DDFC0A2000F0C4F80E48006882
:10086000012803D118A0FFF7D3FC01240B4800682E
:1008700018B91FA0FFF7CCFC02240848001F00682D
:1008800038B925A0FFF7C4FC032402E0322000F0B1
:10089000A9F8204610BD00000001214210012342AA
:1008A000627574746F6E5F636865636B28292C20B2
:1008B000676574206F6E6520627574746F6E206555
:1008C00076656E74210D0A00627574746F6E5F63D5
:1008D0006865636B28292C2077616B652D75702006
:1008E000627574746F6E206576656E74210D0A00F2
:1008F000627574746F6E5F636865636B28292C2062
:100900006B65793020627574746F6E206576656EE4
:1009100074210D0A00000000627574746F6E5F63CD
:100920006865636B28292C206B65793120627574AA
:10093000746F6E206576656E74210D0A00000000EC
:1009400070B510A0FFF764FC002412E0134D05EB16
:100950000415EB68114D05EB0415AA680F4D05EB66
:10096000041569680D4D05EB0415286800F066F85C
:10097000641C032CEADB0A48006840F018000849B0
:10098000086070BD626565705F696E697428292EA4
:100990002E2E2E2E2E2E2E0D0A000000D015000811
:1009A0000C1801404FF0E021096921F004014FF0DB
:1009B000E0221161C21700EB5272C2F3C702074B6B
:1009C0001A701946097801EB4102C2EBC1114FF6CA
:1009D000FF7202EAC101024A118070470000002044
:1009E0000200002001460D4A12884A434FF0E023DE
:1009F0005A6100229A6101221A6100BF4FF0E02281
:100A0000106900F001021AB100F48032002AF5D01A
:100A100000224FF0E0231A619A6170470200002023
:100A200000BF054A128802F04002002AF9D0C2B283
:100A3000014B1B1D1A807047003801402DE9F04121
:100A400006460C46174698460A2E01DB102E05DD99
:100A5000A8A0FFF7DDFB0120BDE8F0810F2C04DD2D
:100A6000B2A0FFF7D5FB0120F6E7032F04DDBDA000
:100A7000FFF7CEFB0120EFE7B8F1030F04DDC7A0BD
:100A8000FFF7C6FB0120E7E7A6F10805D14880691A
:100A90000121A9408843CF49886108468069012126
:100AA000A9400843CB498861A81E07287ED2DFE809
:100AB00000F00430587EA6CEF70047EA880000F028
:100AC0000F05082C10DAC4480068A2000F219140DD
:100AD0008843C149086008460068A10005FA01F191
:100AE0000843BD49086013E0083CBB48001D00688E
:100AF000A2000F2191408843B749091D08600846AC
:100B00000068A10005FA01F10843B349091D086016
:100B1000ECE0082C10DAB1480068A2000F219140E7
:100B20008843AE49086008460068A10005FA01F153
:100B30000843AA49086013E0083CA848001D006863
:100B4000A2000F2191408843A449091D086008466E
:100B50000068A10005FA01F10843A049091D0860D9
:100B6000C4E0082C10DA9E480068A2000F219140D2
:100B700088439B49086008460068A10005FA01F116
:100B800008439749086010E0083C95484068A20077
:100B90000F21914088439249486008464068A1006F
:100BA00005FA01F108438E4948609FE09DE0082C5A
:100BB00010DA8C480068A2000F21914088438949CF
:100BC000086008460068A10005FA01F1084385495C
:100BD000086013E0083C8348001D0068A2000F2154
:100BE000914088437F49091D086008460068A100BC
:100BF00005FA01F108437B49091D086076E0082CDD
:100C000010DA79480068A2000F21914088437649A4
:100C1000086008460068A10005FA01F1084372491E
:100C2000086013E0083C7048001D0068A2000F2116
:100C3000914088436C49091D086008460068A1007E
:100C400005FA01F108436849091D08604EE0082CC7
:100C500010DA66480068A2000F219140884363497A
:100C6000086008460068A10005FA01F108435F49E1
:100C7000086013E0083C5D48001D0068A2000F21D9
:100C8000914088435949091D086008460068A10041
:100C900005FA01F108435549091D086026E0FFE700
:100CA000082C10DA52480068A2000F2191408843B6
:100CB0004F49086008460068A10005FA01F10843A1
:100CC0004B49086010E0083C49484068A2000F21E9
:100CD000914088434649486008464068A10005FAAB
:100CE00001F108434249486000E000BF00BF002016
:100CF000B2E600006770696F5F696E697428292C1D
:100D0000207468652076616C7565206F662070615F
:100D100072616D65746572206770696F5F62616E84
:100D20006B206572726F722E0D0A00006770696F1A
:100D30005F696E697428292C207468652076616C5F
:100D40007565206F6620706172616D6574657220D3
:100D50006770696F5F6E756D206572726F722E0DB0
:100D60000A0000006770696F5F696E697428292C3A
:100D7000207468652076616C7565206F66207061EF
:100D800072616D65746572206770696F5F6D6F6405
:100D900065206572726F722E0D0A00006770696FB0
:100DA0005F696E697428292C207468652076616CEF
:100DB0007565206F6620706172616D657465722063
:100DC0006770696F5F636667206572726F722E0D60
:100DD0000A0000000010024000080140000C014021
:100DE000001001400014014000180140001C0140A7
:100DF0000020014070B505460C46022D02DD08A01A
:100E0000FFF706FA15B1012D06D102E00B48046088
:100E100003E00B48046000E000BF00BF002070BD8D
:100E20006C65645F666C61736828292C206C65644E
:100E30006E756D206572726F720D0A009481214289
:100E40009401234270B50DA0FFF7E2F9002412E0EF
:100E5000104D05EB0415EB680E4D05EB0415AA6863
:100E60000C4D05EB041569680A4D05EB041528685F
:100E7000FFF7E4FD641C022CEADB70BD6C65645F67
:100E8000696E697428292E2E2E2E2E2E2E2E0D0AD6
:100E900000000000A0150008002700240920FFF72B
:100EA000E9FB4820FFF77EFD4FF4E131482000F0D8
:100EB00065F8FFF7C7FFFFF771FCFFF741FD00255D
:100EC0000026A0464AE02648008800F40040B0F51D
:100ED000004F15D12248077822A0FFF799F9002486
:100EE00006E02348015D23A0FFF792F9601CC4B21D
:100EF000BC42F6DB20A0FFF78BF9002018490880E0
:100F0000FFF798FC8046B8F1010F06D0B8F1020F48
:100F10000ED0B8F1030F17D115E0002405E03146DB
:100F20002046FFF765FC601CC4B2012CF7DB0CE027
:100F3000002405E029462046FFF75CFF601CC4B290
:100F4000022CF7DB01E000E000BF00BF0DB9012576
:100F500000E000250EB9012600E00026B3E70000FE
:100F60000800002072656365697665200000000056
:100F70000C000020253278000D0A00002DE9F05FFA
:100F800005460E46300100F0ABF981462E4905FBBF
:100F900001F000F0A5F98246494600F0BFF8074687
:100FA000384600F07DF984B2204600F099F9834676
:100FB000394600F075FA82464FF0834100F0A4F9FB
:100FC000814600F06DF980464FF6FF7000EA041488
:100FD00004EB080084B21D48806940F004001B49FE
:100FE00088610846806940F480408861184800683C
:100FF00020F47F60164908600846006840F40B60E2
:1010000008601248C06840F480401049C860084633
:10101000C06820F48040C8600E480480001D00882D
:1010200042F20C0108430B49091D0880084600885C
:1010300040F0200008800223252203210846FFF704
:10104000BFFABDE8F09F000040420F0000100240D0
:10105000040801400838014090EA010F48BF81F0C0
:10106000004100F12E82421A3CBF801A89184FEAD3
:10107000D0524FF07F4C1CEA410FA2EBD15318BF66
:101080009CEA026F00F03B804FF0004C4CEA0020DD
:101090004CEA012121FA03FC10EB0C0C1ED202F1E8
:1010A000FF325FEA1C2040EBC25038BF70471CF093
:1010B0007F0F4FEA400C18BFBCF17F4F38BF70471D
:1010C000C3F12003994008BF20F00100BCF17F4F1D
:1010D00038BF7047A0F1C04000F0DDB94FEA3C00D6
:1010E000000A40EBC25028BF1CF0FF0F4FEA400C33
:1010F000E6D018BFBCF17F4F38BF7047EAE79CEAE3
:10110000026F05D010EA5C0F08BF00F00040704786
:1011100010B500F07AF900BF64FBBE3E4FF47F0CBF
:101120001CEAD0121EBF1CEAD11392EA0C0F93EAFC
:101130000C0F00F0858090EA010F48BF42F48072E6
:1011400040F4000C41F400002CF07F4120F07F407F
:1011500000B58142A2EB03020FF2081CACEB504E2B
:10116000C0F100009EF800E04FEA4E0E00FB0EFCBE
:1011700038BF49004FEA2C1C02F5FA020CFB0EF3B3
:101180004FEACE1E4FEA112C4FEAC1210EEB635EEF
:1011900042EB22420EFB0CFC4FEA1C5300FB0311F6
:1011A0004FEA112C4FEA01310EFB0CFC4FEADC4CEC
:1011B00000FB0C11C14228BF09184CEB03335DF84A
:1011C00004EB10EB410143EBC250B2F57C0F38BF8A
:1011D000704729D512F0F00F1CBF00F1C04000F09D
:1011E00000407047008182838485868788898B8C44
:1011F0008D8E8F919293959697999A9C9D9FA0A280
:10120000A3A5A7A8AAACAEB0B2B3B5B7B9BCBEC0CF
:10121000C2C5C7C9CCCED1D4D7D9DCDFE2E6E9EC70
:10122000F0F3F7FAFE0000004FEA400C0CF1807C6E
:10123000BCF17E4F28BF7047B0F1C04000F02BB921
:1012400090EA010F0CEAD11348BF42F48072624564
:1012500038BF634507D213F47F0F16D080EA010030
:1012600000F00040704710B500F0CFF8097EFC3E5A
:1012700000F005B880EA010000F00040704780EA05
:10128000010000F0004000F006B912F47F0F04BF27
:101290000248704780EA010000F0FDB80000C07FFE
:1012A000C10DD1F19E0206DB4FEA002343F000435B
:1012B00023FA02F07047004207D54FEA4001B1F12E
:1012C000FE4F02D24FF00000704710B500F09DF8BD
:1012D00049922480002070476FEA20007047000088
:1012E000B0FA80F310FA03F2C3F19D030AD0D905D6
:1012F00001EB1220530638BF704700F1010008BF10
:1013000020F00100704700004FF47F0C1CEAD0125F
:101310001EBF1CEAD11392EA0C0F93EA0C0F00F0E7
:10132000478090EA010F48BF42F480724FF0004CB2
:101330004CEA00204CEA012102EB0302A0FB01135E
:10134000A2F50002002918BF43F001035B0028BF8B
:101350004FEA330342EB22425FEA132C4CEBC250BC
:101360002EBFBCEB436FB2F57C0F70474FEA036CA6
:10137000BCF1004F08BF20F00100B2F57C0F38BF70
:1013800070470BD582F0FF0212F5803FC8BF70474F
:1013900000F1C040D8BF00F00040704700F5000CDD
:1013A0005FEA4C0C48BF7047B0F1C04000F073B822
:1013B00090EA010F0CEAD11348BF42F480726245F3
:1013C00038BF634504D280EA010000F00040704756
:1013D00010B500F01AF800BF8900013E00F007B810
:1013E00000F009B85FEA410C5FEA1C6C08D080EAA3
:1013F000010000F050B85FEA400C5FEA1C6CF6D1C7
:101400004FF00040A0F5800070470EF1020E2EF064
:10141000030E5EF8044B244204D44FEA4102B2F1B9
:101420007F4F11D84FEA4003B3F17F4F0CD80ED154
:101430004FEAD07CB2F17F4F0CEB4C0C0CF1020C5C
:1014400008BF4CEBD17C04E04FF0080C01E04FEA00
:10145000D17C0CEB4C0324FA03F404F00704B4F140
:10146000040C06D20EEB840CBDE810404CF0010CCD
:101470006047DFE80CF0070802024FF00040A0F5DB
:10148000800010BD0846420018BFD2F1807288BFAC
:1014900000F0004010BDFF2141EAD050C005704768
:1014A00080F0004090EA010F7FF5DDAD81F0004152
:1014B00000F007B890EA010F48BF81F000413FF506
:1014C000D2AD421A04D882F00042A0EB02001144CF
:1014D0004FEAD0524FF07F4C1CEA410FA2EBD153A0
:1014E00018BF9CEA026F4AD04FF0004C4CEA002033
:1014F0004CEA012121FA03FCB0EB0C0C0FD412F0E2
:10150000FE0F36D05FEA4C001DD5001240EBC250F2
:1015100038BF70471CF03F0F18BF70470BE0A2F1B7
:1015200001025FEA1C2040EBC25038BF70471CF03C
:101530007F0F18BF7047C3F12003994014BF401EAE
:1015400020F00100704780084FEA122308BF70475F
:10155000B0FA80FCA2EB0C02CCF1280C60FA0CF083
:1015600093EA122F04BF00EBC25070474FEAC370DA
:101570007047130A5FEADC1008BF7047F6E79CEA81
:10158000026F04D010EA5C0F08BF0020704710B54E
:10159000FFF73BFF40DFF63E81F000407047000060
:1015A0000B00000005000000030000000000000028
:1015B0000E00000005000000030000000000000015
:1015C0000B00000008000000020000000000000006
:1015D0000A000000000000000000000002000000FF
:1015E0000E000000040000000000000002000000E7
:1015F0000E000000030000000000000002000000D8
:101600003031323334353637383941424344454638
:101610004030580030313233343536373839616232
:1016200063646566403078004816000800000020BA
:101630000C0000006C010008541600080C0000208B
:101640002C070000880100080000000000000000D6
:041650000000000096
:0400000508000131BD
:00000001FF
