:020000040800F2
:1000000038070020D5010008D9010008DB010008ED
:10001000DD010008DF010008E10100080000000028
:10002000000000000000000000000000E3010008E4
:10003000E501000800000000E7010008E9010008F0
:10004000EB010008EB010008EB010008EB010008E0
:10005000EB010008EB010008EB010008EB010008D0
:10006000EB010008EB010008EB010008EB010008C0
:10007000EB010008EB010008EB010008EB010008B0
:10008000EB010008EB010008EB010008EB010008A0
:10009000EB010008EB010008EB010008EB01000890
:1000A000EB010008EB010008EB010008EB01000880
:1000B000EB010008EB010008EB010008EB01000870
:1000C000EB010008EB010008EB010008EB01000860
:1000D000EB01000885050008EB010008EB010008B2
:1000E000EB010008EB010008EB010008EB01000840
:1000F000EB010008EB010008EB010008EB01000830
:10010000EB010008EB010008EB010008EB0100081F
:10011000EB010008EB010008EB010008EB0100080F
:10012000EB010008EB010008EB010008EB010008FF
:1001300000F002F800F03FF80AA090E8000C8244BA
:100140008344AAF10107DA4501D100F034F8AFF297
:10015000090EBAE80F0013F0010F18BFFB1A43F0A5
:10016000010318474824000068240000103A24BF07
:1001700078C878C1FAD8520724BF30C830C144BF0C
:1001800004680C607047000000230024002500264E
:10019000103A28BF78C1FBD8520728BF30C148BFEA
:1001A0000B607047632900F0AA80002070471FB5DC
:1001B0001FBD10B510BD00F0DDF81146FFF7F7FFC9
:1001C00000F0A4FD00F0FBF803B4FFF7F2FF03BC5E
:1001D00000F01AFA08480047FEE7FEE7FEE7FEE7F0
:1001E000FEE7FEE7FEE7FEE7FEE7FEE70348044919
:1001F000044A054B70470000310100083801002017
:100200003807002038030020380300207047000022
:100210000FB4044910B503AA029800F07DF810BC91
:100220005DF814FB040000202DE9F0410E46044661
:10023000002020622046E168884730B3252805D099
:10024000D4E901219047206A401CF2E7E16820468A
:1002500000278847050018D0A5F14100192802D8C9
:1002600020354FF400673246294620462760FFF7C5
:1002700099FF40B1012804D0F61D26F00706083684
:10028000D8E7361DD6E72846DAE7206ABDE8F081D0
:1002900070B50C460546012A05D02878800600D5A1
:1002A000EA69002302E0012305E05B1C934202D2CD
:1002B000E05C0028F9D1A869E618C01AA861286A8C
:1002C000184428622846AFF3008004E0D5E90121F4
:1002D00014F8010B9047B442F8D32846AFF30080DE
:1002E00070BD704770477047704710B5436913B1D0
:1002F000AFF3008001E0FFF7CBFF012010BD1278C3
:1003000000F124010A7000224A700122EDE7116811
:100310004FF0FF32E9E70000074B70B50D467B4414
:1003200000F011F80446284600F020F810B14FF014
:10033000FF3070BD204670BD7305000001694A1C86
:1003400002610878704700B58FB0CDE90131002116
:10035000059105497944CDE9031011466846FFF738
:1003600063FF0FB000BD0000E5FFFFFF007B00F062
:1003700080007047754600F02BF8AE4605006946D0
:10038000534620F00700854618B020B5FFF72EFF32
:10039000BDE820404FF000064FF000074FF0000886
:1003A0004FF0000B21F00701AC46ACE8C009ACE807
:1003B000C009ACE8C009ACE8C0098D46704710B56B
:1003C0000446AFF300802046BDE81040FFF7FCBEB6
:1003D00000487047D400002000B50020154908618E
:1003E000C8601420486100208861C8610846006820
:1003F00040F001000860084640680F4908400D4978
:100400004860084600680D4908400A4908600846E7
:10041000006820F4802008600846406820F4FE0050
:1004200048600020886000214FF0006000F058F81C
:1004300000BD0000001002400000FFF8FFFFF6FEC4
:100440002DE9F0410746884614461D46284600F02F
:1004500033F8C5F1040007FA00F60F20284100EA3E
:100460000800064306F00F06E21704EBD2625211B1
:10047000920002F1E022D2F800212146E31704EBBA
:10048000D3635B11A4EB431C012303FA0CF31A435F
:100490002046E31704EBD3635B119B0003F1E023D9
:1004A000C3F800210348005D40EA061001490855E1
:1004B000BDE8F08100E400E00146072323EA0102E1
:1004C0001202054B18684FF6FF031840034B184300
:1004D0001043014B186070470CED00E00000FA0576
:1004E000024A0A400243024B1A60704780FFFF1F16
:1004F00008ED00E030B504460025FFF76DFF1F480A
:10050000006840F480301D49086000BF1B48006847
:10051000400C0028FAD04FF4806018494860A01EB3
:10052000C4B20846406840EA8440486008464068D3
:1005300040F4803048601248006840F032001049B2
:1005400008600E48006840F080700C49086000BFE9
:100550000A480068400E0028FAD00848406840F079
:1005600002000649486005E004484068C0F387057A
:1005700005F00305022DF7D130BD00000010024048
:10058000002002401D49098801F0200111B31B49D8
:10059000091D0988C8B21A49098801F40041C9B97E
:1005A0001749098801F4804161B10A2803D000216C
:1005B000134A118020E01249098841F40041104A91
:1005C000118019E00D2806D10D49098841F48041B8
:1005D0000B4A118010E00A490988C1F30D01094A4C
:1005E000505407490988491C054A11801146098859
:1005F000C72901DD0021118070470000003801404B
:10060000080000200C000020014600BF70470000D9
:1006100070B50DA0FFF7FCFD002412E0104D05EBB6
:100620000415EB680E4D05EB0415AA680C4D05EB9F
:10063000041569680A4D05EB0415286800F038F9BF
:10064000641C012CEADB70BD626565705F696E69D0
:100650007428292E2E2E2E2E2E2E2E0D0A0000004E
:100660006C25000870B504460D46012C02DD05A07E
:10067000FFF7CEFD14B90B48056000E000BF00BFD6
:10068000002070BD626565705F73746172742829A3
:100690002C20626565705F6E756D206572726F7279
:1006A0000D0A0000A081214210B5002417480068FF
:1006B000012807D01648006820B11548001F0068BF
:1006C00000281DD113A0FFF7A3FD0A2000F0C4F8F5
:1006D0000E480068012803D118A0FFF799FD0124F6
:1006E0000B48006818B91FA0FFF792FD02240848C4
:1006F000001F006838B925A0FFF78AFD032402E037
:10070000322000F0A9F8204610BD0000000121426F
:1007100010012342627574746F6E5F636865636B6A
:1007200028292C20676574206F6E652062757474AB
:100730006F6E206576656E74210D0A0062757474A3
:100740006F6E5F636865636B28292C2077616B652A
:100750002D757020627574746F6E206576656E7489
:10076000210D0A00627574746F6E5F636865636B58
:1007700028292C206B65793020627574746F6E2087
:100780006576656E74210D0A000000006275747450
:100790006F6E5F636865636B28292C206B65793108
:1007A00020627574746F6E206576656E74210D0A13
:1007B0000000000070B510A0FFF72AFD002412E031
:1007C000134D05EB0415EB68114D05EB0415AA68F4
:1007D0000F4D05EB041569680D4D05EB04152868F0
:1007E00000F066F8641C032CEADB0A48006840F05D
:1007F00018000849086070BD626565705F696E69C0
:100800007428292E2E2E2E2E2E2E2E0D0A0000009C
:100810007C2500080C1801404FF0E021096921F007
:1008200004014FF0E0221161C21700EB5272C2F3D3
:10083000C702074B1A701946097801EB4102C2EB57
:10084000C1114FF6FF7202EAC101024A11807047DE
:10085000000000200200002001460D4A12884A4391
:100860004FF0E0235A6100229A6101221A6100BF11
:100870004FF0E022106900F001021AB100F480325A
:10088000002AF5D000224FF0E0231A619A617047E8
:100890000200002000BF054A128802F04002002A30
:1008A000F9D0C2B2014B1B1D1A80704700380140BD
:1008B0002DE9F04106460C46174698460A2E01DB04
:1008C000102E05DDA8A0FFF7A3FC0120BDE8F081F4
:1008D0000F2C04DDB2A0FFF79BFC0120F6E7032FED
:1008E00004DDBDA0FFF794FC0120EFE7B8F1030F92
:1008F00004DDC7A0FFF78CFC0120E7E7A6F108059F
:10090000D14880690121A9408843CF4988610846C0
:1009100080690121A9400843CB498861A81E0728A6
:100920007ED2DFE800F00430587EA6CEF70047EA1A
:10093000880000F00F05082C10DAC4480068A200F7
:100940000F2191408843C149086008460068A10012
:1009500005FA01F10843BD49086013E0083CBB48B3
:10096000001D0068A2000F2191408843B749091D6E
:10097000086008460068A10005FA01F10843B34980
:10098000091D0860ECE0082C10DAB1480068A200EC
:100990000F2191408843AE49086008460068A100D5
:1009A00005FA01F10843AA49086013E0083CA84889
:1009B000001D0068A2000F2191408843A449091D31
:1009C000086008460068A10005FA01F10843A04943
:1009D000091D0860C4E0082C10DA9E480068A200D7
:1009E0000F21914088439B49086008460068A10098
:1009F00005FA01F108439749086010E0083C954862
:100A00004068A2000F2191408843924948600846FF
:100A10004068A10005FA01F108438E4948609FE053
:100A20009DE0082C10DA8C480068A2000F2191404C
:100A300088438949086008460068A10005FA01F169
:100A400008438549086013E0083C8348001D00689E
:100A5000A2000F21914088437F49091D0860084684
:100A60000068A10005FA01F108437B49091D0860EF
:100A700076E0082C10DA79480068A2000F21914036
:100A800088437649086008460068A10005FA01F12C
:100A900008437249086013E0083C7048001D006874
:100AA000A2000F21914088436C49091D0860084647
:100AB0000068A10005FA01F108436849091D0860B2
:100AC0004EE0082C10DA66480068A2000F21914021
:100AD00088436349086008460068A10005FA01F1EF
:100AE00008435F49086013E0083C5D48001D00684A
:100AF000A2000F21914088435949091D086008460A
:100B00000068A10005FA01F108435549091D086074
:100B100026E0FFE7082C10DA52480068A2000F21F7
:100B2000914088434F49086008460068A10005FAD3
:100B300001F108434B49086010E0083C494840680F
:100B4000A2000F219140884346494860084640680A
:100B5000A10005FA01F108434249486000E000BFE6
:100B600000BF0020B2E600006770696F5F696E69C0
:100B70007428292C207468652076616C7565206F57
:100B80006620706172616D65746572206770696F4F
:100B90005F62616E6B206572726F722E0D0A0000CB
:100BA0006770696F5F696E697428292C20746865A5
:100BB0002076616C7565206F6620706172616D656D
:100BC000746572206770696F5F6E756D20657272F3
:100BD0006F722E0D0A0000006770696F5F696E69A1
:100BE0007428292C207468652076616C7565206FE7
:100BF0006620706172616D65746572206770696FDF
:100C00005F6D6F6465206572726F722E0D0A000051
:100C10006770696F5F696E697428292C2074686534
:100C20002076616C7565206F6620706172616D65FC
:100C3000746572206770696F5F63666720657272A2
:100C40006F722E0D0A0000000010024000080140E3
:100C5000000C014000100140001401400018014048
:100C6000001C01400020014070B505460C46022DD5
:100C700002DD08A0FFF7CCFA15B1012D06D102E084
:100C80000B48046003E00B48046000E000BF00BFB5
:100C9000002070BD6C65645F666C61736828292CE8
:100CA000206C65646E756D206572726F720D0A003E
:100CB000948121429401234270B50DA0FFF7A8FA58
:100CC000002412E0104D05EB0415EB680E4D05EB0A
:100CD0000415AA680C4D05EB041569680A4D05EB6F
:100CE00004152868FFF7E4FD641C022CEADB70BDE4
:100CF0006C65645F696E697428292E2E2E2E2E2E47
:100D00002E2E0D0A000000004C25000800270024AC
:100D10000920FFF7EFFB4820FFF77EFD00F064F8A5
:100D2000FFF7CAFFFFF774FCFFF744FD002500261C
:100D3000A0464AE02548008800F40040B0F5004F86
:100D400015D12248077822A0FFF762FA002406E0B6
:100D50002248015D22A0FFF75BFA601CC4B2BC42CE
:100D6000F6DB20A0FFF754FA002018490880FFF7AF
:100D70009BFC8046B8F1010F06D0B8F1020F0ED0EF
:100D8000B8F1030F17D115E0002405E031462046E5
:100D9000FFF768FC601CC4B2012CF7DB0CE00024F8
:100DA00005E029462046FFF75FFF601CC4B2022C15
:100DB000F7DB01E000E000BF00BF0DB9012500E056
:100DC00000250EB9012600E00026B3E70800002048
:100DD0007265636569766520000000000C000020E4
:100DE000256300000D0A000000B59FB04820029066
:100DF0004FF4E13003900120009000200190012089
:100E000004900021069107910121149113910F91F3
:100E1000684600F003F81FB000BD00002DE9F84F50
:100E2000074600253C462068012805D0A0682428F4
:100E300002DD681EBDE8F88FE168080101F01AF9CB
:100E40008246FA4AA16801FB02F001F013F98346D9
:100E5000514601F031F88146484601F0EFF8064668
:100E6000304601F007F94946009001F0E7F9834662
:100E70004FF0834101F016F9824601F0DFF8804619
:100E8000360146442068062880F0A487DFE810F089
:100E9000A2070600A5015A03440580066068F0B960
:100EA000E348406820F00400E1494860DFF884C36B
:100EB000DCF80C30DCF80820DCF80410DCF800006A
:100EC000FFF7F6FCDFF86CC3DCF81C30DCF8182008
:100ED000DCF81410DCF81000FFF7EAFC22E0D4483C
:100EE000406820F00400D24948600846406840F05D
:100EF00004004860DFF83CC3DCF82C30DCF8282024
:100F0000DCF82410DCF82000FFF7D2FCDFF824C363
:100F1000DCF83C30DCF83820DCF83410DCF8300049
:100F2000FFF7C6FCC448C06840F48040C249C860AE
:100F30000846C06820F48040C8600846806940F0D8
:100F4000040088610846806940F480408861BB499C
:100F50000E80081D008820F48050091D0880A069BB
:100F6000012804D10846008840F480500880B34826
:100F70000830008820F44050B04908310880E0690A
:100F800030B1012805D002280CD003281CD112E072
:100F90001BE0AA480830008840F48050A749083177
:100FA000088012E0A5480830008840F40050A349AA
:100FB0000831088009E0A1480830008840F440501A
:100FC0009E490831088000E000BF00BF9B480C30FC
:100FD000008820F0080099490C31088060690128D8
:100FE00004D10846008840F0080008809348001D9E
:100FF000008820F400609149091D0880206A0128BA
:1010000004D10846008840F4006008808B48001D29
:10101000008820F002008949091D0880606A0128C3
:1010200004D10846008840F0020008808348001D73
:10103000008820F400708149091D0880E06A0128B9
:1010400004D10846008840F4007008807B48001DE9
:10105000008820F480607949091D0880A06A012871
:1010600004D10846008840F48060088073480C3042
:10107000008820F4807071490C310880E06D0128EF
:1010800004D10846008840F4807008806B480C301A
:10109000008820F4007069490C310880A06D012897
:1010A00004D10846008840F4007008806348001DA1
:1010B000008820F008006149091D0880E06C0128C3
:1010C00004D10846008840F0080008805B48001DF5
:1010D000008820F004005949091D0880206D01286E
:1010E00004D10846008840F0040008805348001DE1
:1010F000008820F010005149091D0880206C01284B
:1011000004D10846008840F0100008804B48001DBC
:10111000008820F040004949091D0880A06B012883
:1011200004D10846008840F0400008804348001D74
:10113000008820F080004149091D0880606B01286B
:1011400004D10846008840F0800008803B48001D1C
:10115000008820F480703949091D0880206B01281F
:1011600004D10846008840F48070088033480C3071
:10117000008820F4806031490C310880606C0128BF
:1011800004D10846008840F4806008802B48001D88
:10119000008820F400502949091D08802069012891
:1011A00004D10846008840F4005008802348001D00
:1011B000008820F020002149091D0880E06B0128EB
:1011C0000AD10846008840F020000880022325222A
:1011D00003210846FFF734F99DE3606828BB1448F3
:1011E000406820F008001249486000251AE0DFF846
:1011F00050C00CEB051CDCF80C30DFF844C00CEBE5
:10120000051CDCF80820DFF838C00CEB051CDCF806
:101210000410DFF82CC00CEB051CDCF80000FFF715
:1012200047FB6D1C052DE2DB36E00BE040420F0072
:10123000000001403C230008001002400838014033
:101240007C230008FD48406820F00800FB49486006
:101250000846406840F00800486005251AE0DFF8BD
:10126000E0C30CEB051CDCF80C30DFF8D4C30CEB4E
:10127000051CDCF80820DFF8C8C30CEB051CDCF803
:101280000410DFF8BCC30CEB051CDCF80000FFF712
:101290000FFB6D1C0A2DE2DBEA48006940F40030C8
:1012A000E84908610846006920F4003008610846F2
:1012B000C06940F40030C861E3490E80081D008811
:1012C00020F48050091D0880A069012804D1084637
:1012D000008840F480500880DB480830008820F403
:1012E0004050D94908310880E06930B1012805D063
:1012F00002280CD003281CD112E01BE0D248083091
:10130000008840F48050D0490831088012E0CE486F
:101310000830008840F40050CB490831088009E0CB
:10132000C9480830008840F44050C7490831088057
:1013300000E000BF00BFC4480C30008820F0080067
:10134000C1490C3108806069012804D10846008831
:1013500040F008000880BC48001D008820F40060B0
:10136000B949091D0880206A012804D1084600886F
:1013700040F400600880B448001D008820F002009E
:10138000B149091D0880606A012804D10846008817
:1013900040F002000880AC48001D008820F4007076
:1013A000A949091D0880E06A012804D1084600887F
:1013B00040F400700880A448001D008820F480607C
:1013C000A149091D0880A06A012804D108460088A7
:1013D00040F4806008809C480C30008820F48070C5
:1013E00099490C310880E06D012804D10846008835
:1013F00040F48070088094480C30008820F400701D
:1014000091490C310880A06D012804D1084600885C
:1014100040F4007008808C48001D008820F008000F
:101420008949091D0880E06C012804D1084600881C
:1014300040F0080008808448001D008820F0040067
:101440008149091D0880206D012804D108460088C3
:1014500040F0040008807C48001D008820F0100047
:101460007949091D0880206C012804D108460088AC
:1014700040F0100008807448001D008820F04000F3
:101480007149091D0880A06B012804D10846008815
:1014900040F0400008806C48001D008820F080006B
:1014A0006949091D0880606B012804D1084600883D
:1014B00040F0800008806448001D008820F480709F
:1014C0006149091D0880206B012804D10846008865
:1014D00040F4807008805C480C30008820F4806004
:1014E00059490C310880606C012804D108460088F5
:1014F00040F4806008805448001D008820F40050AB
:101500005149091D08802069012804D10846008836
:1015100040F4005008804C48001D008820F0200056
:101520004949091D0880E06B01280AD10846008856
:1015300040F0200008800223262203210846FEF7FF
:101540007FFF49E6606820B1012828D003287FD1B9
:1015500050E03A48406820F03000384948600025A3
:101560001AE0DFF8E8C00CEB051CDCF80C30DFF803
:10157000DCC00CEB051CDCF80820DFF8D0C00CEB5D
:10158000051CDCF80410DFF8C4C00CEB051CDCF80B
:101590000000FFF78DF96D1C052DE2DB65E02748A3
:1015A000406820F03000254948600846406840F017
:1015B0001000486005251AE0DFF890C00CEB051C10
:1015C000DCF80C30DFF884C00CEB051CDCF80820DC
:1015D000DFF878C00CEB051CDCF80410DFF86CC0F9
:1015E0000CEB051CDCF80000FFF762F96D1C0A2DFE
:1015F000E2DB3AE01148406820F030000F494860D3
:101600000846406840F0300048600A2526E0DFF8D0
:101610003CC00CEB051CDCF80C30DFF830C00CEBE8
:10162000051CDCF80820DFF824C00CEB051CDCF8F6
:101630000410DFF818C00CEB051C0AE000000140A4
:101640007C23000800100240084400401C240008CD
:1016500007E0DCF80000FFF72BF96D1C0F2DD6DB3F
:1016600003E04FF0FF30FFF7E5BB00BFFE48006925
:1016700040F48020FC4908610846006920F480207D
:1016800008610846C06940F48020C861F7490E80AF
:10169000081D008820F48050091D0880A0690128D9
:1016A00004D10846008840F480500880EF48083094
:1016B000008820F44050ED4908310880E06930B1DD
:1016C000012805D002280CD003281CD112E01BE011
:1016D000E6480830008840F48050E449083108802A
:1016E00012E0E2480830008840F40050DF49083139
:1016F000088009E0DD480830008840F44050DB49AC
:101700000831088000E000BF00BFD8480C300088D6
:1017100020F00800D5490C3108806069012804D107
:101720000846008840F008000880D048001D008866
:1017300020F40060CD49091D0880206A012804D1E9
:101740000846008840F400600880C848001D0088F2
:1017500020F00200C549091D0880606A012804D1F3
:101760000846008840F002000880C048001D00883C
:1017700020F40070BD49091D0880E06A012804D1E9
:101780000846008840F400700880B848001D0088B2
:1017900020F48060B549091D0880A06A012804D1A1
:1017A0000846008840F480600880B0480C3000880B
:1017B00020F48070AD490C310880E06D012804D11F
:1017C0000846008840F480700880A8480C300088E3
:1017D00020F40070A5490C310880A06D012804D1C7
:1017E0000846008840F400700880A048001D00886A
:1017F00020F008009D49091D0880E06C012804D1F3
:101800000846008840F0080008809848001D0088BD
:1018100020F004009549091D0880206D012804D19D
:101820000846008840F0040008809048001D0088A9
:1018300020F010008D49091D0880206C012804D17A
:101840000846008840F0100008808848001D008885
:1018500020F040008549091D0880A06B012804D1B3
:101860000846008840F0400008808048001D00883D
:1018700020F080007D49091D0880606B012804D19B
:101880000846008840F0800008807848001D0088E5
:1018900020F480707549091D0880206B012804D14F
:1018A0000846008840F48070088070480C3000883A
:1018B00020F480606D490C310880606C012804D1EF
:1018C0000846008840F4806008806848001D008851
:1018D00020F400506549091D08802069012804D1C1
:1018E0000846008840F4005008806048001D0088C9
:1018F00020F020005D49091D0880E06B01280AD115
:101900000846008840F02000088002232722032197
:101910000846FEF795FD60E200251AE0DFF850C1A9
:101920000CEB051CDCF80C30DFF844C10CEB051C9B
:10193000DCF80820DFF838C10CEB051CDCF80410DB
:10194000DFF82CC10CEB051CDCF80000FEF7B0FF43
:101950006D1C022DE2DB4448006940F4002042493E
:1019600008610846006920F4002008610846C06943
:1019700040F40020C8613F490E80081D008820F413
:101980008050091D0880A069012804D108460088FC
:1019900040F48050088037480830008820F44050D8
:1019A000344908310880E06930B1012805D00228A7
:1019B0000CD003281CD112E01BE02E480830008810
:1019C00040F480502B490831088012E02948083043
:1019D000008840F4005027490831088009E0254874
:1019E0000830008840F4405022490831088000E067
:1019F00000BF00BF1F480C30008820F008001D49C0
:101A00000C3108806069012804D10846008840F044
:101A1000080008801748001D008820F40060154960
:101A2000091D0880206A012804D10846008840F476
:101A3000006008800F48001D008820F002000D495A
:101A4000091D0880606A012804D10846008840F01A
:101A5000020008800748001D008820F40070054936
:101A6000091D0880E06A07E00010024008480040B5
:101A70000C250008084C0040012804D108460088C5
:101A800040F400700880D648008820F48060D44973
:101A90000880A06A012804D10846008840F48060CC
:101AA0000880CF48008820F00800CD490880E06C0D
:101AB000012804D10846008840F008000880C84882
:101AC000008820F00400C6490880206D012804D158
:101AD0000846008840F004000880C148008820F0D3
:101AE0001000BF490880206C012804D108460088F6
:101AF00040F010000880BA48008820F04000B84943
:101B00000880A06B012804D10846008840F04000FE
:101B10000880B348008820F08000B1490880606BDD
:101B2000012804D10846008840F080000880AC48B5
:101B3000008820F48070AA490880206B012804D115
:101B40000846008840F480700880A648008820F489
:101B50000050A44908802069012804D10846008863
:101B600040F4005008809E48008820F020009C49E6
:101B70000880E06B01280AD10846008840F0200068
:101B800008800223342203210846FEF759FC24E191
:101B900000251AE0DFF850C20CEB051CDCF80C3015
:101BA000DFF844C20CEB051CDCF80820DFF838C273
:101BB0000CEB051CDCF80410DFF82CC20CEB051C48
:101BC000DCF80000FEF774FE6D1C022DE2DB874896
:101BD000006940F48010854908610846006920F4D6
:101BE000801008610846C06940F48010C8618049CF
:101BF0000E810846808920F480508881A0690128E0
:101C000004D10846808940F4805088817848008A51
:101C100020F4405076490882E06930B1012805D0AF
:101C200002280AD0032816D10EE015E07048008A79
:101C300040F480506E4908820EE06D48008A40F4FE
:101C400000506B49088207E06948008A40F4405020
:101C50006749088200E000BF00BF6548808A20F025
:101C60000800634988826069012804D10846808A97
:101C700040F0080088825E48808920F400605C495A
:101C80008881206A012804D10846808940F40060D8
:101C900088815748808920F0020055498881606A10
:101CA000012804D10846808940F00200888150480C
:101CB000808920F400704E498881E06A012804D1AF
:101CC0000846808940F4007088814948808920F462
:101CD000806047498881A06A012804D1084680892C
:101CE00040F4806088814248808920F008004049A3
:101CF0008881E06C012804D10846808940F0080002
:101D000088813B48808920F0040039498881206D12
:101D1000012804D10846808940F0040088813448B5
:101D2000808920F0100032498881206C012804D17C
:101D30000846808940F0100088812D48808920F075
:101D400040002B498881A06B012804D10846808976
:101D500040F0400088812648808920F08000244996
:101D60008881606B012804D10846808940F080009A
:101D700088811F48808920F480701D498881206BEC
:101D8000012804D10846808940F480708881184871
:101D9000808920F40050164988812069012804D1E7
:101DA0000846808940F4005088811148808920F0DD
:101DB00020000F498881E06B01280AD108468089FC
:101DC00040F0200088810223352203210846FEF7D7
:101DD00037FB02E04FF0FF3045E400BF002042E453
:101DE0000C4C00400C4800402C250008001002401C
:101DF0000050004090EA010F48BF81F0004100F11F
:101E00002E82421A3CBF801A89184FEAD0524FF0F6
:101E10007F4C1CEA410FA2EBD15318BF9CEA026F22
:101E200000F03B804FF0004C4CEA00204CEA0121CE
:101E300021FA03FC10EB0C0C1ED202F1FF325FEA18
:101E40001C2040EBC25038BF70471CF07F0F4FEA98
:101E5000400C18BFBCF17F4F38BF7047C3F120035F
:101E6000994008BF20F00100BCF17F4F38BF704798
:101E7000A0F1C04000F0DDB94FEA3C00000A40EBA1
:101E8000C25028BF1CF0FF0F4FEA400CE6D018BF2D
:101E9000BCF17F4F38BF7047EAE79CEA026F05D07C
:101EA00010EA5C0F08BF00F00040704710B500F06A
:101EB0007AF900BF64FBBE3E4FF47F0C1CEAD012DF
:101EC0001EBF1CEAD11392EA0C0F93EA0C0F00F02C
:101ED000858090EA010F48BF42F4807240F4000C04
:101EE00041F400002CF07F4120F07F4000B581429A
:101EF000A2EB03020FF2081CACEB504EC0F1000045
:101F00009EF800E04FEA4E0E00FB0EFC38BF490081
:101F10004FEA2C1C02F5FA020CFB0EF34FEACE1E20
:101F20004FEA112C4FEAC1210EEB635E42EB2242D5
:101F30000EFB0CFC4FEA1C5300FB03114FEA112C63
:101F40004FEA01310EFB0CFC4FEADC4C00FB0C119C
:101F5000C14228BF09184CEB03335DF804EB10EBCA
:101F6000410143EBC250B2F57C0F38BF704729D511
:101F700012F0F00F1CBF00F1C04000F000407047AD
:101F8000008182838485868788898B8C8D8E8F9152
:101F90009293959697999A9C9D9FA0A2A3A5A7A876
:101FA000AAACAEB0B2B3B5B7B9BCBEC0C2C5C7C9A2
:101FB000CCCED1D4D7D9DCDFE2E6E9ECF0F3F7FA06
:101FC000FE0000004FEA400C0CF1807CBCF17E4F1B
:101FD00028BF7047B0F1C04000F02BB990EA010F64
:101FE0000CEAD11348BF42F48072624538BF6345A2
:101FF00007D213F47F0F16D080EA010000F00040F2
:10200000704710B500F0CFF8097EFC3E00F005B82F
:1020100080EA010000F00040704780EA010000F013
:10202000004000F006B912F47F0F04BF0248704769
:1020300080EA010000F0FDB80000C07F41000B0EF7
:10204000D3F19E0208D950F400034FEA032323FA88
:1020500002F048BF4042704710B500F0A4F800BF3E
:1020600049922480002070476FF0004282EA2000ED
:102070007047000010F0004148BF4042B0FA80F3C2
:1020800010FA03F2C3F19D030BD051EAC35101EBE7
:102090001220530638BF704700F1010008BF20F03E
:1020A000010070474FF47F0C1CEAD0121EBF1CEADF
:1020B000D11392EA0C0F93EA0C0F00F0478090EADC
:1020C000010F48BF42F480724FF0004C4CEA0020F0
:1020D0004CEA012102EB0302A0FB0113A2F500026E
:1020E000002918BF43F001035B0028BF4FEA330308
:1020F00042EB22425FEA132C4CEBC2502EBFBCEBEA
:10210000436FB2F57C0F70474FEA036CBCF1004F90
:1021100008BF20F00100B2F57C0F38BF70470BD527
:1021200082F0FF0212F5803FC8BF704700F1C04047
:10213000D8BF00F00040704700F5000C5FEA4C0C7F
:1021400048BF7047B0F1C04000F073B890EA010F8B
:102150000CEAD11348BF42F48072624538BF634530
:1021600004D280EA010000F00040704710B500F092
:102170001AF800BF8900013E00F007B800F009B866
:102180005FEA410C5FEA1C6C08D080EA010000F0B5
:1021900050B85FEA400C5FEA1C6CF6D14FF000408B
:1021A000A0F5800070470EF1020E2EF0030E5EF8CF
:1021B000044B244204D44FEA4102B2F17F4F11D8BC
:1021C0004FEA4003B3F17F4F0CD80ED14FEAD07CD9
:1021D000B2F17F4F0CEB4C0C0CF1020C08BF4CEB36
:1021E000D17C04E04FF0080C01E04FEAD17C0CEB0D
:1021F0004C0324FA03F404F00704B4F1040C06D2EF
:102200000EEB840CBDE810404CF0010C6047DFE899
:102210000CF0070802024FF00040A0F5800010BD4E
:102220000846420018BFD2F1807288BF00F000401B
:1022300010BDFF2141EAD050C005704780F000403A
:1022400090EA010F7FF5DDAD81F0004100F007B8A5
:1022500090EA010F48BF81F000413FF5D2AD421A2C
:1022600004D882F00042A0EB020011444FEAD052A1
:102270004FF07F4C1CEA410FA2EBD15318BF9CEAF0
:10228000026F4AD04FF0004C4CEA00204CEA01218A
:1022900021FA03FCB0EB0C0C0FD412F0FE0F36D079
:1022A0005FEA4C001DD5001240EBC25038BF7047AA
:1022B0001CF03F0F18BF70470BE0A2F101025FEA6C
:1022C0001C2040EBC25038BF70471CF07F0F18BF76
:1022D0007047C3F12003994014BF401E20F0010055
:1022E000704780084FEA122308BF7047B0FA80FC9D
:1022F000A2EB0C02CCF1280C60FA0CF093EA122F3E
:1023000004BF00EBC25070474FEAC3707047130A16
:102310005FEADC1008BF7047F6E79CEA026F04D062
:1023200010EA5C0F08BF0020704710B5FFF73BFFB5
:1023300040DFF63E81F00040704700000A000000D8
:102340000900000003000000020000000A00000075
:102350000A00000000000000020000000B00000066
:102360000600000003000000020000000B00000057
:102370000700000000000000020000000A0000004A
:102380000000000000000000020000000A00000041
:102390000100000003000000020000000A0000002D
:1023A0000200000003000000020000000A0000001C
:1023B0000300000000000000020000000A0000000E
:1023C0000400000003000000020000000D000000F7
:1023D0000300000000000000020000000D000000EB
:1023E0000400000003000000020000000D000000D7
:1023F0000500000003000000020000000D000000C6
:102400000600000000000000020000000D000000B7
:102410000700000003000000020000000B000000A5
:102420000D00000000000000020000000B00000092
:102430000E00000003000000020000000B0000007E
:102440000A00000003000000020000000B00000072
:102450000B00000000000000020000000B00000064
:102460000C00000003000000020000000B00000050
:102470000D00000000000000020000000B00000042
:102480000E00000003000000020000000C0000002D
:102490000A00000003000000020000000C00000021
:1024A0000B00000000000000020000000C00000013
:1024B0000C00000003000000020000000D000000FE
:1024C0000B00000000000000020000000D000000F2
:1024D0000C00000003000000020000000D000000DE
:1024E0000800000003000000020000000D000000D2
:1024F0000900000000000000020000000D000000C4
:102500000A00000003000000020000000C000000B0
:102510000A00000003000000020000000C000000A0
:102520000B00000000000000020000000C00000092
:102530000C00000003000000020000000D0000007D
:102540000200000000000000020000000B0000007C
:102550000500000003000000000000000E00000065
:102560000500000003000000000000000B00000058
:102570000800000002000000000000000A00000047
:102580000000000000000000020000000E0000003B
:102590000400000000000000020000000E00000027
:1025A000030000000000000002000000CC2500082D
:1025B000000000200C0000006C010008D825000875
:1025C0000C0000202C07000088010008000000001B
:0825D000000000000000000003
:0400000508000131BD
:00000001FF
